:1000000015EF00F0EA6A090EE96EEF500DE0060EFA
:10001000016E006A002EFED7012EFBD77B0E006E0C
:10002000002EFED7EF2EF3D71200F86AD09EC150F3
:10003000C00B0F09C16E070EB46EF19E956A8C6AF3
:10004000FF0E936E000E956E0590066A5A0E076EAF
:1000500094948B940C0EBD6EB76AB66A000E0509B7
:10006000CA6EF90ECB6E07C0BEFF0750310802E31F
:10007000640E076E938481B409D0190E0726C80E4A
:10008000096EC0DF0750960801E2076A938081B0CD
:1000900008D00570020E086E960E096EB3DF082EAA
:1000A000FBD7938281B21BD0062A8C9695968C94AE
:1000B00095948C8E959E0C0E086EFA0E096EA2DF3A
:1000C000082EFBD78C9E959E0650020801E1066A19
:1000D000020E086EFA0E096E95DF082EFBD705A0FA
:1000E00010D0065206E18C8695968C9495948C904F
:1000F0009590062C06D08C9695968C8495948C8041
:10010000959005B017D005A002D08C9E01D08C8EA2
:10011000959E05B002D08C9201D08C8295928C96DF
:1001200095968C949594020E086EFA0E096E6ADF0D
:10013000082EFBD705A00CD005B002D08C9201D0C0
:100140008C82959205A002D08C9E01D08C8E959EBB
:0C0150008C9095908C9C959C86D70300A9
:020000040030CA
:0E00000024CC3E1E0087A1000FC00FE00F4071
:00000001FF
;PIC18F4550
;CRC=CB03  CREATED="19-jul-25 13:49"
